{
  "_format": "hh-sol-artifact-1",
  "contractName": "Config",
  "sourceName": "contracts/lending-pool/Config.sol",
  "abi": [
    {
      "constant": false,
      "inputs": [
        {
          "name": "self",
          "type": "Config.ReserveData storage"
        },
        {
          "name": "_hTokenAddress",
          "type": "address"
        },
        {
          "name": "_dTokenAddress",
          "type": "address"
        },
        {
          "name": "_decimals",
          "type": "uint8"
        }
      ],
      "name": "initialize",
      "outputs": [],
      "payable": false,
      "stateMutability": "nonpayable",
      "type": "function"
    },
    {
      "constant": true,
      "inputs": [
        {
          "name": "_rate",
          "type": "uint256"
        },
        {
          "name": "_lastUpdateTimestamp",
          "type": "uint256"
        }
      ],
      "name": "calculateLinearInterest",
      "outputs": [
        {
          "name": "",
          "type": "uint256"
        }
      ],
      "payable": false,
      "stateMutability": "view",
      "type": "function"
    }
  ],
  "bytecode": "0x6107e6610028600b82828239805160001a607314151561001b57fe5b30600052607381538281f3fe73000000000000000000000000000000000000000030146080604052600436106100405760003560e01c8063a25e3cbc14610045578063e0b0fd2e146100cd575b600080fd5b81801561005157600080fd5b506100cb6004803603608081101561006857600080fd5b8101908080359060200190929190803573ffffffffffffffffffffffffffffffffffffffff169060200190929190803573ffffffffffffffffffffffffffffffffffffffff169060200190929190803560ff169060200190929190505050610119565b005b610103600480360360408110156100e357600080fd5b8101908080359060200190929190803590602001909291905050506102d0565b6040518082815260200191505060405180910390f35b600073ffffffffffffffffffffffffffffffffffffffff168460010160009054906101000a900473ffffffffffffffffffffffffffffffffffffffff1673ffffffffffffffffffffffffffffffffffffffff161415156101c4576040517f08c379a00000000000000000000000000000000000000000000000000000000081526004018080602001828103825260258152602001806107966025913960400191505060405180910390fd5b6101cc610349565b84600701819055506101dc610349565b8460060181905550428460030181905550808460020160146101000a81548160ff021916908360ff160217905550828460010160006101000a81548173ffffffffffffffffffffffffffffffffffffffff021916908373ffffffffffffffffffffffffffffffffffffffff160217905550818460020160006101000a81548173ffffffffffffffffffffffffffffffffffffffff021916908373ffffffffffffffffffffffffffffffffffffffff16021790555060018460080160006101000a81548160ff02191690831515021790555060008460080160016101000a81548160ff02191690831515021790555050505050565b6000806102e6834261035d90919063ffffffff16565b905060006103116102fa6301e133806103a7565b610303846103a7565b6103c790919063ffffffff16565b905061033f61031e610349565b610331838861042590919063ffffffff16565b61048a90919063ffffffff16565b9250505092915050565b60006b033b2e3c9fd0803ce8000000905090565b600061039f83836040518060400160405280601e81526020017f536166654d6174683a207375627472616374696f6e206f766572666c6f770000815250610514565b905092915050565b60006103c0633b9aca00836105d690919063ffffffff16565b9050919050565b6000806002838115156103d657fe5b04905061041c8361040e6103ff6b033b2e3c9fd0803ce8000000886105d690919063ffffffff16565b8461048a90919063ffffffff16565b61066090919063ffffffff16565b91505092915050565b60006104826b033b2e3c9fd0803ce800000061047461044d85876105d690919063ffffffff16565b60026b033b2e3c9fd0803ce800000081151561046557fe5b0461048a90919063ffffffff16565b61066090919063ffffffff16565b905092915050565b600080828401905083811015151561050a576040517f08c379a000000000000000000000000000000000000000000000000000000000815260040180806020018281038252601b8152602001807f536166654d6174683a206164646974696f6e206f766572666c6f77000000000081525060200191505060405180910390fd5b8091505092915050565b600083831115829015156105c3576040517f08c379a00000000000000000000000000000000000000000000000000000000081526004018080602001828103825283818151815260200191508051906020019080838360005b8381101561058857808201518184015260208101905061056d565b50505050905090810190601f1680156105b55780820380516001836020036101000a031916815260200191505b509250505060405180910390fd5b5060008385039050809150509392505050565b6000808314156105e9576000905061065a565b600082840290508284828115156105fc57fe5b04141515610655576040517f08c379a00000000000000000000000000000000000000000000000000000000081526004018080602001828103825260218152602001806107756021913960400191505060405180910390fd5b809150505b92915050565b60006106a283836040518060400160405280601a81526020017f536166654d6174683a206469766973696f6e206279207a65726f0000000000008152506106aa565b905092915050565b600080831182901515610758576040517f08c379a00000000000000000000000000000000000000000000000000000000081526004018080602001828103825283818151815260200191508051906020019080838360005b8381101561071d578082015181840152602081019050610702565b50505050905090810190601f16801561074a5780820380516001836020036101000a031916815260200191505b509250505060405180910390fd5b506000838581151561076657fe5b04905080915050939250505056fe536166654d6174683a206d756c7469706c69636174696f6e206f766572666c6f77526573657276652068617320616c7265616479206265656e20696e697469616c697a65642ea165627a7a72305820adaca576ad5e209e9a91d011a4939d741ebb3577eb3d48c746cb74777d088f630029",
  "linkReferences": {},
  "deployedLinkReferences": {}
}