{
  "_format": "hh-sol-artifact-1",
  "contractName": "LendingPoolDataProvider",
  "sourceName": "contracts/lending-pool/LendingPoolDataProvider.sol",
  "abi": [
    {
      "constant": true,
      "inputs": [
        {
          "name": "liquidityUSD",
          "type": "uint256"
        },
        {
          "name": "borrowUSD",
          "type": "uint256"
        }
      ],
      "name": "calculateHealthFactor",
      "outputs": [
        {
          "name": "",
          "type": "uint256"
        }
      ],
      "payable": false,
      "stateMutability": "view",
      "type": "function"
    },
    {
      "constant": true,
      "inputs": [],
      "name": "getLiquidationThresold",
      "outputs": [
        {
          "name": "",
          "type": "uint256"
        }
      ],
      "payable": false,
      "stateMutability": "view",
      "type": "function"
    },
    {
      "constant": true,
      "inputs": [
        {
          "name": "_reserve",
          "type": "address"
        },
        {
          "name": "_user",
          "type": "address"
        }
      ],
      "name": "reserveAvailableBorrows",
      "outputs": [
        {
          "name": "",
          "type": "uint256"
        }
      ],
      "payable": false,
      "stateMutability": "view",
      "type": "function"
    },
    {
      "constant": true,
      "inputs": [
        {
          "name": "_reserve",
          "type": "address"
        },
        {
          "name": "_user",
          "type": "address"
        },
        {
          "name": "_amount",
          "type": "uint256"
        }
      ],
      "name": "isBalanceDecreaseAllowed",
      "outputs": [
        {
          "name": "",
          "type": "bool"
        }
      ],
      "payable": false,
      "stateMutability": "view",
      "type": "function"
    },
    {
      "constant": true,
      "inputs": [
        {
          "name": "_reserve",
          "type": "address"
        },
        {
          "name": "_user",
          "type": "address"
        }
      ],
      "name": "getUserReserveData",
      "outputs": [
        {
          "name": "totalLiquidity",
          "type": "uint256"
        },
        {
          "name": "totalBorrows",
          "type": "uint256"
        },
        {
          "name": "totalLiquidityUSD",
          "type": "uint256"
        },
        {
          "name": "totalBorrowsUSD",
          "type": "uint256"
        },
        {
          "name": "lastUpdateTimestamp",
          "type": "uint256"
        }
      ],
      "payable": false,
      "stateMutability": "view",
      "type": "function"
    },
    {
      "constant": true,
      "inputs": [],
      "name": "addressProvider",
      "outputs": [
        {
          "name": "",
          "type": "address"
        }
      ],
      "payable": false,
      "stateMutability": "view",
      "type": "function"
    },
    {
      "constant": true,
      "inputs": [
        {
          "name": "_reserve",
          "type": "address"
        }
      ],
      "name": "getReserveData",
      "outputs": [
        {
          "name": "lastUpdateTimestamp",
          "type": "uint256"
        },
        {
          "name": "borrowRate",
          "type": "uint256"
        },
        {
          "name": "liquidityRate",
          "type": "uint256"
        },
        {
          "name": "totalLiquidity",
          "type": "uint256"
        },
        {
          "name": "availableLiquidity",
          "type": "uint256"
        },
        {
          "name": "totalBorrows",
          "type": "uint256"
        },
        {
          "name": "borrowCumulativeIndex",
          "type": "uint256"
        },
        {
          "name": "liquidityCumulativeIndex",
          "type": "uint256"
        },
        {
          "name": "hTokenAddress",
          "type": "address"
        },
        {
          "name": "dTokenAddress",
          "type": "address"
        }
      ],
      "payable": false,
      "stateMutability": "view",
      "type": "function"
    },
    {
      "constant": true,
      "inputs": [],
      "name": "getSystemLevelInfo",
      "outputs": [
        {
          "name": "totalLiquidity",
          "type": "uint256"
        },
        {
          "name": "totalBorrows",
          "type": "uint256"
        },
        {
          "name": "liquidityRate",
          "type": "uint256"
        },
        {
          "name": "borrowRate",
          "type": "uint256"
        }
      ],
      "payable": false,
      "stateMutability": "view",
      "type": "function"
    },
    {
      "constant": true,
      "inputs": [
        {
          "name": "_user",
          "type": "address"
        }
      ],
      "name": "availableBorrowsUSD",
      "outputs": [
        {
          "name": "",
          "type": "uint256"
        }
      ],
      "payable": false,
      "stateMutability": "view",
      "type": "function"
    },
    {
      "constant": true,
      "inputs": [],
      "name": "getAllReserves",
      "outputs": [
        {
          "name": "",
          "type": "address[]"
        }
      ],
      "payable": false,
      "stateMutability": "view",
      "type": "function"
    },
    {
      "constant": false,
      "inputs": [],
      "name": "initialize",
      "outputs": [],
      "payable": false,
      "stateMutability": "nonpayable",
      "type": "function"
    },
    {
      "constant": true,
      "inputs": [
        {
          "name": "_user",
          "type": "address"
        }
      ],
      "name": "getUserAccountData",
      "outputs": [
        {
          "name": "totalLiquidity",
          "type": "uint256"
        },
        {
          "name": "totalCollateral",
          "type": "uint256"
        },
        {
          "name": "totalBorrows",
          "type": "uint256"
        },
        {
          "name": "ltv",
          "type": "uint256"
        },
        {
          "name": "liquidationThresold",
          "type": "uint256"
        },
        {
          "name": "healthFactor",
          "type": "uint256"
        },
        {
          "name": "canBeLiquidated",
          "type": "bool"
        }
      ],
      "payable": false,
      "stateMutability": "view",
      "type": "function"
    },
    {
      "constant": true,
      "inputs": [
        {
          "name": "_reserve",
          "type": "address"
        },
        {
          "name": "_amount",
          "type": "uint256"
        },
        {
          "name": "_totalBorrowsUSD",
          "type": "uint256"
        },
        {
          "name": "_ltv",
          "type": "uint256"
        }
      ],
      "name": "calculateCollateralNeeded",
      "outputs": [
        {
          "name": "",
          "type": "uint256"
        }
      ],
      "payable": false,
      "stateMutability": "view",
      "type": "function"
    },
    {
      "constant": true,
      "inputs": [],
      "name": "core",
      "outputs": [
        {
          "name": "",
          "type": "address"
        }
      ],
      "payable": false,
      "stateMutability": "view",
      "type": "function"
    },
    {
      "inputs": [
        {
          "name": "_addressesProvider",
          "type": "address"
        }
      ],
      "payable": false,
      "stateMutability": "nonpayable",
      "type": "constructor"
    }
  ],
  "bytecode": "0x608060405234801561001057600080fd5b50604051602080612d478339810180604052602081101561003057600080fd5b8101908080519060200190929190505050806000806101000a81548173ffffffffffffffffffffffffffffffffffffffff021916908373ffffffffffffffffffffffffffffffffffffffff16021790555050612cb6806100916000396000f3fe608060405234801561001057600080fd5b50600436106100ea5760003560e01c80634cd200981161008c5780638129fc1c116100665780638129fc1c1461050e578063bf92857c14610518578063e7c4a8131461059e578063f2f4eb2614610614576100ea565b80634cd200981461042457806362d2bf7e146104575780636aa701bf146104af576100ea565b806321eb6d36116100c857806321eb6d36146101d157806328dd2d01146102575780632954018c146102eb57806335ea6a7514610335576100ea565b806301f72884146100ef5780630da043b41461013b578063158c4e9a14610159575b600080fd5b6101256004803603604081101561010557600080fd5b81019080803590602001909291908035906020019092919050505061065e565b6040518082815260200191505060405180910390f35b6101436106dc565b6040518082815260200191505060405180910390f35b6101bb6004803603604081101561016f57600080fd5b81019080803573ffffffffffffffffffffffffffffffffffffffff169060200190929190803573ffffffffffffffffffffffffffffffffffffffff169060200190929190505050610786565b6040518082815260200191505060405180910390f35b61023d600480360360608110156101e757600080fd5b81019080803573ffffffffffffffffffffffffffffffffffffffff169060200190929190803573ffffffffffffffffffffffffffffffffffffffff16906020019092919080359060200190929190505050610914565b604051808215151515815260200191505060405180910390f35b6102b96004803603604081101561026d57600080fd5b81019080803573ffffffffffffffffffffffffffffffffffffffff169060200190929190803573ffffffffffffffffffffffffffffffffffffffff169060200190929190505050610b0b565b604051808681526020018581526020018481526020018381526020018281526020019550505050505060405180910390f35b6102f36110e0565b604051808273ffffffffffffffffffffffffffffffffffffffff1673ffffffffffffffffffffffffffffffffffffffff16815260200191505060405180910390f35b6103776004803603602081101561034b57600080fd5b81019080803573ffffffffffffffffffffffffffffffffffffffff169060200190929190505050611105565b604051808b81526020018a81526020018981526020018881526020018781526020018681526020018581526020018481526020018373ffffffffffffffffffffffffffffffffffffffff1673ffffffffffffffffffffffffffffffffffffffff1681526020018273ffffffffffffffffffffffffffffffffffffffff1673ffffffffffffffffffffffffffffffffffffffff1681526020019a505050505050505050505060405180910390f35b61042c6119b9565b6040518085815260200184815260200183815260200182815260200194505050505060405180910390f35b6104996004803603602081101561046d57600080fd5b81019080803573ffffffffffffffffffffffffffffffffffffffff169060200190929190505050611ca0565b6040518082815260200191505060405180910390f35b6104b7611cf9565b6040518080602001828103825283818151815260200191508051906020019060200280838360005b838110156104fa5780820151818401526020810190506104df565b505050509050019250505060405180910390f35b610516611df9565b005b61055a6004803603602081101561052e57600080fd5b81019080803573ffffffffffffffffffffffffffffffffffffffff169060200190929190505050611edd565b604051808881526020018781526020018681526020018581526020018481526020018381526020018215151515815260200197505050505050505060405180910390f35b6105fe600480360360808110156105b457600080fd5b81019080803573ffffffffffffffffffffffffffffffffffffffff16906020019092919080359060200190929190803590602001909291908035906020019092919050505061251d565b6040518082815260200191505060405180910390f35b61061c6126ba565b604051808273ffffffffffffffffffffffffffffffffffffffff1673ffffffffffffffffffffffffffffffffffffffff16815260200191505060405180910390f35b60008082111515610691577fffffffffffffffffffffffffffffffffffffffffffffffffffffffffffffffff90506106d6565b600061069b6106dc565b90506106d26106a9846126e0565b6106c4836106b6886126e0565b61270090919063ffffffff16565b61276590919063ffffffff16565b9150505b92915050565b6000600160009054906101000a900473ffffffffffffffffffffffffffffffffffffffff1673ffffffffffffffffffffffffffffffffffffffff16630da043b46040518163ffffffff1660e01b815260040160206040518083038186803b15801561074657600080fd5b505afa15801561075a573d6000803e3d6000fd5b505050506040513d602081101561077057600080fd5b8101908080519060200190929190505050905090565b6000806000809054906101000a900473ffffffffffffffffffffffffffffffffffffffff1673ffffffffffffffffffffffffffffffffffffffff1663fca513a86040518163ffffffff1660e01b815260040160206040518083038186803b1580156107f057600080fd5b505afa158015610804573d6000803e3d6000fd5b505050506040513d602081101561081a57600080fd5b81019080805190602001909291905050509050600061083884611ca0565b905060008273ffffffffffffffffffffffffffffffffffffffff1663c2c1c917876040518263ffffffff1660e01b8152600401808273ffffffffffffffffffffffffffffffffffffffff1673ffffffffffffffffffffffffffffffffffffffff16815260200191505060206040518083038186803b1580156108b957600080fd5b505afa1580156108cd573d6000803e3d6000fd5b505050506040513d60208110156108e357600080fd5b8101908080519060200190929190505050905061090981836127c390919063ffffffff16565b935050505092915050565b6000806000809054906101000a900473ffffffffffffffffffffffffffffffffffffffff1673ffffffffffffffffffffffffffffffffffffffff1663fca513a86040518163ffffffff1660e01b815260040160206040518083038186803b15801561097e57600080fd5b505afa158015610992573d6000803e3d6000fd5b505050506040513d60208110156109a857600080fd5b8101908080519060200190929190505050905060008173ffffffffffffffffffffffffffffffffffffffff1663c2c1c917876040518263ffffffff1660e01b8152600401808273ffffffffffffffffffffffffffffffffffffffff1673ffffffffffffffffffffffffffffffffffffffff16815260200191505060206040518083038186803b158015610a3a57600080fd5b505afa158015610a4e573d6000803e3d6000fd5b505050506040513d6020811015610a6457600080fd5b810190808051906020019092919050505090506000610a8c828661281d90919063ffffffff16565b9050600080610a9a88611edd565b5050505092505091506000610ab8848461287a90919063ffffffff16565b90506000610ad7610ad285856127c390919063ffffffff16565b6126e0565b9050610ae16106dc565b811015610af8576001975050505050505050610b04565b60009750505050505050505b9392505050565b6000806000806000806000809054906101000a900473ffffffffffffffffffffffffffffffffffffffff1673ffffffffffffffffffffffffffffffffffffffff1663fca513a86040518163ffffffff1660e01b815260040160206040518083038186803b158015610b7b57600080fd5b505afa158015610b8f573d6000803e3d6000fd5b505050506040513d6020811015610ba557600080fd5b8101908080519060200190929190505050905060008173ffffffffffffffffffffffffffffffffffffffff1663c2c1c9178a6040518263ffffffff1660e01b8152600401808273ffffffffffffffffffffffffffffffffffffffff1673ffffffffffffffffffffffffffffffffffffffff16815260200191505060206040518083038186803b158015610c3757600080fd5b505afa158015610c4b573d6000803e3d6000fd5b505050506040513d6020811015610c6157600080fd5b81019080805190602001909291905050509050600160009054906101000a900473ffffffffffffffffffffffffffffffffffffffff1673ffffffffffffffffffffffffffffffffffffffff1663a31e48dd8a6040518263ffffffff1660e01b8152600401808273ffffffffffffffffffffffffffffffffffffffff1673ffffffffffffffffffffffffffffffffffffffff16815260200191505060206040518083038186803b158015610d1357600080fd5b505afa158015610d27573d6000803e3d6000fd5b505050506040513d6020811015610d3d57600080fd5b810190808051906020019092919050505073ffffffffffffffffffffffffffffffffffffffff166370a08231896040518263ffffffff1660e01b8152600401808273ffffffffffffffffffffffffffffffffffffffff1673ffffffffffffffffffffffffffffffffffffffff16815260200191505060206040518083038186803b158015610dca57600080fd5b505afa158015610dde573d6000803e3d6000fd5b505050506040513d6020811015610df457600080fd5b81019080805190602001909291905050509650600160009054906101000a900473ffffffffffffffffffffffffffffffffffffffff1673ffffffffffffffffffffffffffffffffffffffff16639bae84a68a6040518263ffffffff1660e01b8152600401808273ffffffffffffffffffffffffffffffffffffffff1673ffffffffffffffffffffffffffffffffffffffff16815260200191505060206040518083038186803b158015610ea657600080fd5b505afa158015610eba573d6000803e3d6000fd5b505050506040513d6020811015610ed057600080fd5b810190808051906020019092919050505073ffffffffffffffffffffffffffffffffffffffff166370a08231896040518263ffffffff1660e01b8152600401808273ffffffffffffffffffffffffffffffffffffffff1673ffffffffffffffffffffffffffffffffffffffff16815260200191505060206040518083038186803b158015610f5d57600080fd5b505afa158015610f71573d6000803e3d6000fd5b505050506040513d6020811015610f8757600080fd5b81019080805190602001909291905050509550610fad818861281d90919063ffffffff16565b9450610fc2818761281d90919063ffffffff16565b9350600160009054906101000a900473ffffffffffffffffffffffffffffffffffffffff1673ffffffffffffffffffffffffffffffffffffffff16631df32e6c8a8a6040518363ffffffff1660e01b8152600401808373ffffffffffffffffffffffffffffffffffffffff1673ffffffffffffffffffffffffffffffffffffffff1681526020018273ffffffffffffffffffffffffffffffffffffffff1673ffffffffffffffffffffffffffffffffffffffff1681526020019250505060206040518083038186803b15801561109757600080fd5b505afa1580156110ab573d6000803e3d6000fd5b505050506040513d60208110156110c157600080fd5b8101908080519060200190929190505050925050509295509295909350565b6000809054906101000a900473ffffffffffffffffffffffffffffffffffffffff1681565b600080600080600080600080600080600160009054906101000a900473ffffffffffffffffffffffffffffffffffffffff1673ffffffffffffffffffffffffffffffffffffffff16630c3828d08c6040518263ffffffff1660e01b8152600401808273ffffffffffffffffffffffffffffffffffffffff1673ffffffffffffffffffffffffffffffffffffffff16815260200191505060206040518083038186803b1580156111b357600080fd5b505afa1580156111c7573d6000803e3d6000fd5b505050506040513d60208110156111dd57600080fd5b81019080805190602001909291905050509950600160009054906101000a900473ffffffffffffffffffffffffffffffffffffffff1673ffffffffffffffffffffffffffffffffffffffff1663684e505d8c6040518263ffffffff1660e01b8152600401808273ffffffffffffffffffffffffffffffffffffffff1673ffffffffffffffffffffffffffffffffffffffff16815260200191505060206040518083038186803b15801561128f57600080fd5b505afa1580156112a3573d6000803e3d6000fd5b505050506040513d60208110156112b957600080fd5b81019080805190602001909291905050509850600160009054906101000a900473ffffffffffffffffffffffffffffffffffffffff1673ffffffffffffffffffffffffffffffffffffffff16634be5c6a18c6040518263ffffffff1660e01b8152600401808273ffffffffffffffffffffffffffffffffffffffff1673ffffffffffffffffffffffffffffffffffffffff16815260200191505060206040518083038186803b15801561136b57600080fd5b505afa15801561137f573d6000803e3d6000fd5b505050506040513d602081101561139557600080fd5b81019080805190602001909291905050509750600160009054906101000a900473ffffffffffffffffffffffffffffffffffffffff1673ffffffffffffffffffffffffffffffffffffffff1663c33cfd908c6040518263ffffffff1660e01b8152600401808273ffffffffffffffffffffffffffffffffffffffff1673ffffffffffffffffffffffffffffffffffffffff16815260200191505060206040518083038186803b15801561144757600080fd5b505afa15801561145b573d6000803e3d6000fd5b505050506040513d602081101561147157600080fd5b81019080805190602001909291905050509650600160009054906101000a900473ffffffffffffffffffffffffffffffffffffffff1673ffffffffffffffffffffffffffffffffffffffff1663e24030198c6040518263ffffffff1660e01b8152600401808273ffffffffffffffffffffffffffffffffffffffff1673ffffffffffffffffffffffffffffffffffffffff16815260200191505060206040518083038186803b15801561152357600080fd5b505afa158015611537573d6000803e3d6000fd5b505050506040513d602081101561154d57600080fd5b81019080805190602001909291905050509550600160009054906101000a900473ffffffffffffffffffffffffffffffffffffffff1673ffffffffffffffffffffffffffffffffffffffff1663e6d181908c6040518263ffffffff1660e01b8152600401808273ffffffffffffffffffffffffffffffffffffffff1673ffffffffffffffffffffffffffffffffffffffff16815260200191505060206040518083038186803b1580156115ff57600080fd5b505afa158015611613573d6000803e3d6000fd5b505050506040513d602081101561162957600080fd5b81019080805190602001909291905050509450600160009054906101000a900473ffffffffffffffffffffffffffffffffffffffff1673ffffffffffffffffffffffffffffffffffffffff1663958d058c8c6040518263ffffffff1660e01b8152600401808273ffffffffffffffffffffffffffffffffffffffff1673ffffffffffffffffffffffffffffffffffffffff16815260200191505060206040518083038186803b1580156116db57600080fd5b505afa1580156116ef573d6000803e3d6000fd5b505050506040513d602081101561170557600080fd5b81019080805190602001909291905050509350600160009054906101000a900473ffffffffffffffffffffffffffffffffffffffff1673ffffffffffffffffffffffffffffffffffffffff1663bd7fd79a8c6040518263ffffffff1660e01b8152600401808273ffffffffffffffffffffffffffffffffffffffff1673ffffffffffffffffffffffffffffffffffffffff16815260200191505060206040518083038186803b1580156117b757600080fd5b505afa1580156117cb573d6000803e3d6000fd5b505050506040513d60208110156117e157600080fd5b81019080805190602001909291905050509250600160009054906101000a900473ffffffffffffffffffffffffffffffffffffffff1673ffffffffffffffffffffffffffffffffffffffff1663a31e48dd8c6040518263ffffffff1660e01b8152600401808273ffffffffffffffffffffffffffffffffffffffff1673ffffffffffffffffffffffffffffffffffffffff16815260200191505060206040518083038186803b15801561189357600080fd5b505afa1580156118a7573d6000803e3d6000fd5b505050506040513d60208110156118bd57600080fd5b81019080805190602001909291905050509150600160009054906101000a900473ffffffffffffffffffffffffffffffffffffffff1673ffffffffffffffffffffffffffffffffffffffff16639bae84a68c6040518263ffffffff1660e01b8152600401808273ffffffffffffffffffffffffffffffffffffffff1673ffffffffffffffffffffffffffffffffffffffff16815260200191505060206040518083038186803b15801561196f57600080fd5b505afa158015611983573d6000803e3d6000fd5b505050506040513d602081101561199957600080fd5b810190808051906020019092919050505090509193959799509193959799565b6000806000806119c7612bc2565b60008060009054906101000a900473ffffffffffffffffffffffffffffffffffffffff1673ffffffffffffffffffffffffffffffffffffffff1663fca513a86040518163ffffffff1660e01b815260040160206040518083038186803b158015611a3057600080fd5b505afa158015611a44573d6000803e3d6000fd5b505050506040513d6020811015611a5a57600080fd5b810190808051906020019092919050505090506060611a77611cf9565b905060008151905060008090505b818160ff161015611c6b57828160ff16815181101515611aa157fe5b90602001906020020151856080019073ffffffffffffffffffffffffffffffffffffffff16908173ffffffffffffffffffffffffffffffffffffffff1681525050611aef8560800151611105565b909192939495969798509091929394509091925090915090505088604001896060018a6020018b60000184815250848152508481525084815250505050508373ffffffffffffffffffffffffffffffffffffffff1663c2c1c91786608001516040518263ffffffff1660e01b8152600401808273ffffffffffffffffffffffffffffffffffffffff1673ffffffffffffffffffffffffffffffffffffffff16815260200191505060206040518083038186803b158015611bae57600080fd5b505afa158015611bc2573d6000803e3d6000fd5b505050506040513d6020811015611bd857600080fd5b81019080805190602001909291905050508560a0018181525050611c0d8560a00151866020015161281d90919063ffffffff16565b8560c0018181525050611c318560a00151866000015161281d90919063ffffffff16565b8560e00181815250508460c00151890198508460e00151880197508460600151870196508460400151860195508080600101915050611a85565b50611c7f818761290490919063ffffffff16565b9550611c94818661290490919063ffffffff16565b94505050505090919293565b6000806000611cae84611edd565b505050509250509150611cf06002611ce2611cd360028561294e90919063ffffffff16565b856129d890919063ffffffff16565b61290490919063ffffffff16565b92505050919050565b6060600160009054906101000a900473ffffffffffffffffffffffffffffffffffffffff1673ffffffffffffffffffffffffffffffffffffffff16631cbc88106040518163ffffffff1660e01b815260040160006040518083038186803b158015611d6357600080fd5b505afa158015611d77573d6000803e3d6000fd5b505050506040513d6000823e3d601f19601f820116820180604052506020811015611da157600080fd5b810190808051640100000000811115611db957600080fd5b82810190506020810184811115611dcf57600080fd5b8151856020820283011164010000000082111715611dec57600080fd5b5050929190505050905090565b6000809054906101000a900473ffffffffffffffffffffffffffffffffffffffff1673ffffffffffffffffffffffffffffffffffffffff1663ed6ff7606040518163ffffffff1660e01b815260040160206040518083038186803b158015611e6057600080fd5b505afa158015611e74573d6000803e3d6000fd5b505050506040513d6020811015611e8a57600080fd5b8101908080519060200190929190505050600160006101000a81548173ffffffffffffffffffffffffffffffffffffffff021916908373ffffffffffffffffffffffffffffffffffffffff160217905550565b6000806000806000806000611ef0612c1d565b60008060009054906101000a900473ffffffffffffffffffffffffffffffffffffffff1673ffffffffffffffffffffffffffffffffffffffff1663fca513a86040518163ffffffff1660e01b815260040160206040518083038186803b158015611f5957600080fd5b505afa158015611f6d573d6000803e3d6000fd5b505050506040513d6020811015611f8357600080fd5b810190808051906020019092919050505090506060611fa0611cf9565b905060008090505b81518160ff16101561246e57818160ff16815181101515611fc557fe5b90602001906020020151846000019073ffffffffffffffffffffffffffffffffffffffff16908173ffffffffffffffffffffffffffffffffffffffff16815250508273ffffffffffffffffffffffffffffffffffffffff1663c2c1c91785600001516040518263ffffffff1660e01b8152600401808273ffffffffffffffffffffffffffffffffffffffff1673ffffffffffffffffffffffffffffffffffffffff16815260200191505060206040518083038186803b15801561208757600080fd5b505afa15801561209b573d6000803e3d6000fd5b505050506040513d60208110156120b157600080fd5b8101908080519060200190929190505050846020018181525050600160009054906101000a900473ffffffffffffffffffffffffffffffffffffffff1673ffffffffffffffffffffffffffffffffffffffff1663a31e48dd85600001516040518263ffffffff1660e01b8152600401808273ffffffffffffffffffffffffffffffffffffffff1673ffffffffffffffffffffffffffffffffffffffff16815260200191505060206040518083038186803b15801561216e57600080fd5b505afa158015612182573d6000803e3d6000fd5b505050506040513d602081101561219857600080fd5b810190808051906020019092919050505073ffffffffffffffffffffffffffffffffffffffff166370a082318d6040518263ffffffff1660e01b8152600401808273ffffffffffffffffffffffffffffffffffffffff1673ffffffffffffffffffffffffffffffffffffffff16815260200191505060206040518083038186803b15801561222557600080fd5b505afa158015612239573d6000803e3d6000fd5b505050506040513d602081101561224f57600080fd5b8101908080519060200190929190505050846040018181525050600160009054906101000a900473ffffffffffffffffffffffffffffffffffffffff1673ffffffffffffffffffffffffffffffffffffffff16639bae84a685600001516040518263ffffffff1660e01b8152600401808273ffffffffffffffffffffffffffffffffffffffff1673ffffffffffffffffffffffffffffffffffffffff16815260200191505060206040518083038186803b15801561230c57600080fd5b505afa158015612320573d6000803e3d6000fd5b505050506040513d602081101561233657600080fd5b810190808051906020019092919050505073ffffffffffffffffffffffffffffffffffffffff166370a082318d6040518263ffffffff1660e01b8152600401808273ffffffffffffffffffffffffffffffffffffffff1673ffffffffffffffffffffffffffffffffffffffff16815260200191505060206040518083038186803b1580156123c357600080fd5b505afa1580156123d7573d6000803e3d6000fd5b505050506040513d60208110156123ed57600080fd5b81019080805190602001909291905050508460600181815250506124228460200151856040015161281d90919063ffffffff16565b8460800181815250506124468460200151856060015161281d90919063ffffffff16565b8460a001818152505083608001518b019a508360a00151890198508080600101915050611fa8565b5061249561248660028a61294e90919063ffffffff16565b8b6129d890919063ffffffff16565b985060008814156124c8577fffffffffffffffffffffffffffffffffffffffffffffffffffffffffffffffff96506124e6565b6124e36124de8b8a6127c390919063ffffffff16565b6126e0565b96505b6124f08a8961065e565b94506124fa612a22565b85101561250a576001935061250f565b600093505b505050919395979092949650565b6000806000809054906101000a900473ffffffffffffffffffffffffffffffffffffffff1673ffffffffffffffffffffffffffffffffffffffff1663fca513a86040518163ffffffff1660e01b815260040160206040518083038186803b15801561258757600080fd5b505afa15801561259b573d6000803e3d6000fd5b505050506040513d60208110156125b157600080fd5b8101908080519060200190929190505050905060008173ffffffffffffffffffffffffffffffffffffffff1663c2c1c917886040518263ffffffff1660e01b8152600401808273ffffffffffffffffffffffffffffffffffffffff1673ffffffffffffffffffffffffffffffffffffffff16815260200191505060206040518083038186803b15801561264357600080fd5b505afa158015612657573d6000803e3d6000fd5b505050506040513d602081101561266d57600080fd5b81019080805190602001909291905050509050600085612696838961281d90919063ffffffff16565b0190506126ad60028261294e90919063ffffffff16565b9350505050949350505050565b600160009054906101000a900473ffffffffffffffffffffffffffffffffffffffff1681565b60006126f9633b9aca008361294e90919063ffffffff16565b9050919050565b600061275d6b033b2e3c9fd0803ce800000061274f612728858761294e90919063ffffffff16565b60026b033b2e3c9fd0803ce800000081151561274057fe5b0461287a90919063ffffffff16565b61290490919063ffffffff16565b905092915050565b60008060028381151561277457fe5b0490506127ba836127ac61279d6b033b2e3c9fd0803ce80000008861294e90919063ffffffff16565b8461287a90919063ffffffff16565b61290490919063ffffffff16565b91505092915050565b6000806002838115156127d257fe5b049050612814836128066127f7670de0b6b3a76400008861294e90919063ffffffff16565b8461287a90919063ffffffff16565b61290490919063ffffffff16565b91505092915050565b6000612872670de0b6b3a7640000612864612841858761294e90919063ffffffff16565b6002670de0b6b3a764000081151561285557fe5b0461287a90919063ffffffff16565b61290490919063ffffffff16565b905092915050565b60008082840190508381101515156128fa576040517f08c379a000000000000000000000000000000000000000000000000000000000815260040180806020018281038252601b8152602001807f536166654d6174683a206164646974696f6e206f766572666c6f77000000000081525060200191505060405180910390fd5b8091505092915050565b600061294683836040518060400160405280601a81526020017f536166654d6174683a206469766973696f6e206279207a65726f000000000000815250612a36565b905092915050565b60008083141561296157600090506129d2565b6000828402905082848281151561297457fe5b041415156129cd576040517f08c379a0000000000000000000000000000000000000000000000000000000008152600401808060200182810382526021815260200180612c6a6021913960400191505060405180910390fd5b809150505b92915050565b6000612a1a83836040518060400160405280601e81526020017f536166654d6174683a207375627472616374696f6e206f766572666c6f770000815250612b00565b905092915050565b60006b033b2e3c9fd0803ce8000000905090565b600080831182901515612ae4576040517f08c379a00000000000000000000000000000000000000000000000000000000081526004018080602001828103825283818151815260200191508051906020019080838360005b83811015612aa9578082015181840152602081019050612a8e565b50505050905090810190601f168015612ad65780820380516001836020036101000a031916815260200191505b509250505060405180910390fd5b5060008385811515612af257fe5b049050809150509392505050565b60008383111582901515612baf576040517f08c379a00000000000000000000000000000000000000000000000000000000081526004018080602001828103825283818151815260200191508051906020019080838360005b83811015612b74578082015181840152602081019050612b59565b50505050905090810190601f168015612ba15780820380516001836020036101000a031916815260200191505b509250505060405180910390fd5b5060008385039050809150509392505050565b60405180610100016040528060008152602001600081526020016000815260200160008152602001600073ffffffffffffffffffffffffffffffffffffffff1681526020016000815260200160008152602001600081525090565b6040518060c00160405280600073ffffffffffffffffffffffffffffffffffffffff1681526020016000815260200160008152602001600081526020016000815260200160008152509056fe536166654d6174683a206d756c7469706c69636174696f6e206f766572666c6f77a165627a7a7230582008295062c07eb120743f61ca5495352e62f4f0c352286a22b8421f4947f3ec770029",
  "linkReferences": {},
  "deployedLinkReferences": {}
}